:020000040800F2
:10000000700D0020AD010008FB1600083B1300082E
:10001000F9160008B9020008151A000800000000CF
:10002000000000000000000000000000FF160008B3
:10003000BB02000800000000FD16000801170008C0
:10004000C7010008C7010008C7010008C701000870
:10005000C7010008C7010008C7010008C701000860
:10006000C7010008C7010008C7010008C701000850
:10007000C7010008C7010008C7010008C701000840
:10008000C7010008C7010008C70100080000000000
:10009000000000000000000000000000C701000890
:1000A000C7010008C7010008C7010008C701000810
:1000B000C7010008C7010008C7010008C701000800
:1000C000C7010008C7010008C7010008C7010008F0
:1000D000C7010008091A0008C70100080000000055
:1000E000C7010008C7010008C701000800000000A0
:1000F000000000000000000000000000C701000830
:1001000000000000C7010008C7010008C70100087F
:1001100000000000000000000000000000000000DF
:10012000C7010008C7010008C7010008C70100088F
:10013000C7010008000000000000000000000000EF
:10014000000000000000000000000000C7010008DF
:10015000C7010008C7010008C7010008C70100085F
:10016000C7010008C70100080000000000000000EF
:10017000000000000000000000000000000000007F
:1001800000000000C701000800000000000000009F
:10019000C7010008C7010008DFF80CD000F07AF8AA
:1001A00000480047551A0008700D00200648804797
:1001B00006480047FEE7FEE7FEE7FEE7FEE7FEE74C
:1001C000FEE7FEE7FEE7FEE7951700089901000845
:1001D0002DE9F05F0546002092469B46884606467C
:1001E000814640241BE0284641464746224600F00F
:1001F00041F853465A46C01A914110D31146184649
:10020000224600F028F82D1A67EB01084F462246D7
:100210000120002100F01FF817EB00094E41201EBD
:10022000A4F10104DFDC484631462A464346BDE8D6
:10023000F09FD2B201E000F8012B491EFBD27047BB
:100240000022F6E710B513460A4604461946FFF7A2
:10025000F0FF204610BD202A04DB203A00FA02F10C
:10026000002070479140C2F1200320FA03F31943A4
:1002700090407047202A04DB203A21FA02F0002146
:10028000704721FA02F3D040C2F1200291400843A6
:1002900019467047064C074D06E0E06840F0010340
:1002A00094E8070098471034AC42F6D3FFF778FF84
:1002B000B0250008D0250008FEE7704772B6FEE7BB
:1002C0002DE9F0410446876D00F05EF9064694F88A
:1002D00035000025022806D08020606584F834505F
:1002E0000120BDE8F0812068016821F0160101605D
:1002F0002068416921F080014161206C08B9A06C3F
:1003000020B12068016821F00801016020680168BF
:1003100021F0010101600CE000F036F9801B052896
:1003200007D920206065032084F8350084F8345014
:10033000D7E720680068C007EED194F85C103F2032
:100340008840B860012084F8350084F834500020DB
:10035000C7E790F83510022903D0802141650120BC
:100360007047052180F835100068016821F001010F
:10037000016000207047000070B5044600F004F9E9
:100380000546601C02D004480078044400F0FCF8E4
:10039000401BA042FAD370BD080000202DE9F84FA1
:1003A000DFF8B8A10022012403254FF00F090AF15C
:1003B000040BAAF1040E00BF0B6804FA02F63340E6
:1003C000B34273D10F7907F00307012F01D0022F39
:1003D00016D187684FEA420805FA08FC27EA0C079D
:1003E000D1F80CC00CFA08FC4CEA070CC0F808C0A5
:1003F0004768B7430E79C6F3001696403E43466001
:100400000E79F643B6070DD0C768560005FA06FC0C
:1004100027EA0C07D1F808C00CFA06FC4CEA070CD6
:10042000C0F80CC00E7906F00306022E10D1D608D3
:1004300000EB8608D8F8206057074FEAD76C09FA16
:100440000CF7BE430F6907FA0CF73743C8F8207062
:1004500006684FEA420C05FA0CF7BE430F7907F025
:10046000030707FA0CF7374307604E6816F4403F5E
:100470006DD03B4E376847F480473760366822F0CE
:10048000030706F480460096364E07EB060CDCF8B0
:10049000086897073F0F09FA07F826EA0806DFF809
:1004A000C880404503D14FF000081EE04FE0DFF860
:1004B000BC80404502D14FF0010816E0DFF8B08063
:1004C000404502D14FF002080FE0DFF8A880404518
:1004D00002D14FF0030808E0DFF89C80404502D1CC
:1004E0004FF0040801E04FF0070808FA07F848EA5F
:1004F0000608CCF80888DAF800605746D1F804C03E
:100500009E435FEACC2C00D51E433E60DBF80060C2
:100510005F46D1F804C09E435FEA8C2C00D51E4391
:100520003E60DEF800607746D1F804C09E435FEA83
:100530008C3C00D51E433E60084F083F3E68D1F812
:1005400004C09E435FEACC3C00D51E433E60521C73
:10055000102AFFF431AFBDE8F88F0000083C0140DD
:1005600044380240003001400000024000040240D4
:1005700000080240000C0240001002400AB18161F4
:1005800070470904FBE700000148806870470000DD
:100590000800002070B5040025D094F83D00002527
:1005A00020B984F83C50204600F04EF9242084F80D
:1005B0003D002068016821F00101016020680168A8
:1005C00041F4004101602068016821F400410160AC
:1005D00000F0A2FA4D4A6168914201D84C4900E00E
:1005E0004C49884201D2012070BD4B492368B0FBC1
:1005F000F1F15E6826F03F060E435E606368934249
:1006000006D94FF4967359434FF47A73B1FBF3F163
:100610002368491C1E6A26F03F063143196261684F
:10062000914210D84900401EB0FBF1F2521CC2F3B7
:100630000B02042A01D2042022E0B0FBF1F0401C9E
:10064000C0F30B001CE0A268F2B301EBC10303EBA3
:100650000116431EB3FBF6F35B1C43F480431B05FA
:1006600049D092B301EBC10202EB0111401EB0FB75
:10067000F1F0401CC0F30B0040F4804040F4004017
:100680002168CA694CF6FF739A431043C861D4E9E4
:10069000071001432068026822F0C0021143016084
:1006A000D4E9030101432068826848F2FF339A438A
:1006B00011438160D4E9050108432168CA6822F02A
:1006C000FF021043C86001E00EE016E020680168F8
:1006D00041F0010101602564202084F83D0025637C
:1006E00084F83E50002070BD01EB4106431EB3FB71
:1006F000F6F35B1CB3E70120C2E701EB4101401EAA
:10070000B0FBF1F0401CC0F30B00B7E7A08601007E
:1007100080841E0000093D0040420F002DE9F84F83
:100720001F4690468A460446DDF82890FFF72CFFC6
:10073000054694F83D0020287FD119230122404925
:100740002046009500F08CFE002876D194F83C00FD
:10075000012872D0012084F83C0020680168C90794
:1007600003D1016841F0010101602068016821F4B2
:1007700000610160212084F83D00102084F83E00D3
:1007800000262664C4F824806785608D20852D4866
:10079000E0622B464A465146204600F0E7FD90B9FC
:1007A000206841698069009036E02A464946204623
:1007B00000F0FCFE50B1206C042804D120680168D0
:1007C00041F4007101600120BDE8F88F606A216882
:1007D00000780861606A401C6062618D491E618515
:1007E000218D491E89B2218522685369DB435B074D
:1007F0000BD451B100781061606A401C6062608D5A
:10080000401E6085208D401E20852A464946204690
:1008100000F0FAFD0028CED1208D0028C5D154F873
:100820003D0B016841F400710160202004F81E09AD
:10083000E67766770020C7E7FFE70220C4E70000FD
:10084000020010000000FFFF10B586B0044614211E
:100850006846FFF7F5FC13492068884220D112480A
:100860000021026842F002020260006800F002000B
:100870000590C02000901220CDE9010103200390D3
:100880000420049069460948FFF788FD06481030A7
:10089000016841F400110160006800F40010059047
:1008A00006B010BD00540040303802400004024041
:1008B0000248816802781144816070470800002076
:1008C0000B4810B5016841F400710160016841F402
:1008D00080610160016841F480710160032000F0D3
:1008E0006FF80F2000F006F800F024F8002010BD8B
:1008F000003C024070B50D4D04464FF47A712878E3
:10090000B1FBF0F00A490968B1FBF0F000F00CFB14
:1009100048B9102C07D200222146501E00F030F8B2
:1009200000206C6070BD012070BD00000800002038
:10093000140000200A4808B5016841F480410160B4
:10094000006800F4804000900548001F016841F0F5
:1009500080510160006800F08050009008BD0000E8
:1009600044380240002809DB00F01F0201219140B9
:100970004009800000F1E020C0F80011704700003D
:10098000F0B40E4B1B680C46C3F30223C3F10705FA
:10099000042D00D90425191D072901D2002300E0E8
:1009A000DB1E012606FA05F1491E214099409E40B2
:1009B000761E16403143F0BC01F02DB80CED00E07E
:1009C000064900F0070208684FF6FF03184040EAA6
:1009D0000220034A10430860704700000CED00E05D
:1009E0000000FA052DE9F0470E46050065D0DFF856
:1009F0001481D8F80000F7B200F00700B04207D227
:100A000088F80070D8F8000000F00700B04254D118
:100A100028683D4C810712D5400703D5206840F473
:100A2000E05020602878000703D5206840F460403B
:100A300020602068A96820F0F00008432060287832
:100A4000C0072DD0304968680839012812D0022823
:100A500013D0032811D00968890700292DDA2168ED
:100A600021F0030101432160FFF78EFD814641F231
:100A7000883A0EE009688903EFE709688901ECE725
:100A8000FFF782FDA0EB0901514502D90320BDE823
:100A9000F0872068696800F00C00B0EB810FEFD19F
:100AA000D8F80010404601F00701B14207D907709D
:100AB000006800F00700B04201D00120E7E7287885
:100AC000400705D52068E96820F4E050084320601D
:100AD0002878000706D52068296920F4604040EA9C
:100AE000C100206000F038F82168084AC1F3031102
:100AF000515CC8400649086006480068FFF7FAFEE6
:100B00000020C4E7003C02400838024032240008BC
:100B1000140000200C000020044805490068096802
:100B2000044AC1F38221515CC84070471400002080
:100B30000838024042240008044805490068096852
:100B4000044AC1F34231515CC84070471400002090
:100B50000838024042240008154810B5006810F01B
:100B60000C02144813D01449042A0FD0082A0ED1BD
:100B70000F4C241F2268236802F03F025B0207D556
:100B80002068C0F38810A0FB010106E0084610BDF4
:100B90002168C1F38811A1FB00010023FFF718FBB6
:100BA0002168C1F30141491C4900B0FBF1F010BDBF
:100BB000083802400024F40040787D012DE9F84F08
:100BC00004006ED02078DFF84C93C007A9F104052B
:100BD0004AD009F104000168C1F38101012908D05C
:100BE0000068C0F3810002280AD1D9F80000400251
:100BF00006D52868800337D560680028E1D033E047
:100C00006068B0F5803F10D0B0F5A02F286810D0F4
:100C100020F480302860286820F4802028606068F4
:100C2000A8B1FFF7B1FC06460DE0286840F480301B
:100C3000F4E740F480202860F7E700BFFFF7A4FC4A
:100C4000801B642873D828688003F7D50CE0FFF771
:100C50009BFC064605E000BFFFF796FC801B64285E
:100C6000F0D828688003F7D42078DFF8AC828007BA
:100C70004FF0000A3ED5A748001D016811F00C0F87
:100C800008D00068C0F3810002280BD1D9F8000019
:100C9000400207D42868800716D5E068012800D1F3
:100CA00012E033E1E068B8B10120C8F80000FFF7B6
:100CB0006BFC064605E000BFFFF766FC801B0228C0
:100CC000C0D828688007F7D52868216920F0F80087
:100CD00040EAC10028600DE0C8F800A0FFF754FC0E
:100CE000064604E0FFF750FC801B02281FD8286846
:100CF0008007F7D42078000722D5864F874861699E
:100D0000703771B101210160FFF73EFC064604E037
:100D1000FFF73AFC801B022809D838688007F7D50E
:100D20000EE0C0F800A0FFF72FFC064605E082E0C9
:100D3000FFF72AFC801B02287DD838688007F7D48B
:100D40002078400768D5DFF8CCB100270BF13C0BC9
:100D5000DBF80000C0000BD4DBF8001041F080513C
:100D6000CBF80010DBF80000012700F08050009065
:100D70006B4E3068C00510D4306840F4807030602D
:100D8000FFF702FC009005E0FFF7FEFB0099401A18
:100D9000022850D83068C005F6D55E4EA0686C3683
:100DA00001280FD00528306810D020F001003060F5
:100DB000306820F004003060A068B8B1FFF7E4FBB1
:100DC00000900FE0306840F00100F4E740F00400CC
:100DD0003060F7E7FFF7D8FB0099411A41F28830FD
:100DE000814266D830688007F4D50EE0FFF7CCFB6F
:100DF000009007E0FFF7C8FB0099411A41F28830E4
:100E0000814256D830688007F4D42FB1DBF8001047
:100E100021F08051CBF80010A069C8B33D49091DED
:100E20000968C1F3810102294AD00228504607D03F
:100E3000C8F8600000E03CE0FFF7A6FB04463BE09A
:100E40004746C8F86000FFF79FFB064605E000BF75
:100E5000FFF79AFB801B02282BD828688001F7D463
:100E6000D4E907010843A16A2E4A490802EB01416F
:100E7000626A41EA8211084394F82C1040EA016149
:100E8000C9F8001001203866FFF77EFB044606E033
:100E90003EE000BFFFF778FB001B022809D8286856
:100EA0008001F7D534E000BFFFF76EFB001B02287E
:100EB00002D90320BDE8F88F28688001F4D427E028
:100EC0000128F7D0D9F80000E26900F480019142CE
:100ED0001CD1226A00F03F01914217D147F6C07140
:100EE000626A0140B1EB821F10D1A26A4FF0FF335A
:100EF00000F4403103EB5202B1EB024F06D194F8FB
:100F00002C1000F07060B0EB016F01D00120D1E730
:100F10000020CFE70438024000004742800E4742DD
:100F2000007000400000FFFF10B5401EB0F1807F50
:100F300001D3012010BD4FF0E02460610F21601744
:100F400000F069FD0020A06107202061002010BD95
:100F500070477047F8B5016804460868CA684B696D
:100F600010F00F0F4FF0000559D003F0010602F406
:100F70009077374365D0C10705D0D10503D5616CA3
:100F800041F001016164410705D5D90703D0616CC7
:100F900041F002016164810705D5D90703D0616C76
:100FA00041F004016164010707D502F020013143DB
:100FB00003D0616C41F008016164616C00293AD092
:100FC000800604D5900602D5204600F019FC206862
:100FD0004069616CC0F38010090700D460B32046FB
:100FE00000F0E7FB20684069400621D520681430F6
:100FF00050E8001F21F0400140E80012002AF5D11E
:10100000E06BA8B172490165E06BFFF7A2F9002817
:1010100011D0E06B016D01B0BDE8F04008478306D8
:101020000FD593060DD52046BDE8F84000F0E8BB8B
:101030002046FFF78EFFF8BD2046FFF78AFF656464
:10104000F8BD266B2023012E7ED1C6067CD5D606A0
:101050007AD508684868009048694FF00206400653
:101060004DD5E26B106840684FF480770004000CA7
:101070003AD0A18D814237D9E085D069B8422DD0D0
:1010800020680C3050E8001F21F4807140E8001205
:10109000002AF5D12068143050E8001F21F001012A
:1010A00040E80012002AF5D12068143050E8001FF3
:1010B00021F0400140E80012002AF5D184F84230C6
:1010C000256320680C3050E8001F21F0100140E833
:1010D0000012002AF5D1E06BFFF7F2F86663A08DED
:1010E000E18D401A81B206E0A18D8142A8D1D0697C
:1010F000B842A5D166632046FFF72AFFF8BDA08D50
:10110000E18D401A81B2E08D0028F7D00029F5D09A
:1011100020680C3050E8002F22F4907240E800273D
:10112000002FF5D12068143050E8002F22F0010282
:1011300040E80027002FF5D184F84230256320686D
:101140000C3050E8002F00E006E022F0100240E8EA
:101150000023002BF3D1CDE705062BD5150629D5A5
:1011600094F841002128C9D1A068B0F5805F01D171
:101170002069B0B1206A411C216221680078486072
:10118000E08C401E0004000CE084B7D12068C168E8
:1011900021F08001C1602068C16841F04001C16058
:1011A000F8BD206A0088C0F308004860206A801CEF
:1011B0002062E5E74006F3D55006F1D5CA6820461F
:1011C00022F04002CA6084F8413000F0B5F8F8BD62
:1011D000A517000870B5040004D094F8410000255C
:1011E00010B106E0012070BD84F84050204600F0A8
:1011F00023F8242084F841002068C16821F40051BC
:10120000C160204600F05EFB2068016921F4904136
:1012100001612068416921F02A0141612068C168AB
:1012200041F40051C1606564202084F8410084F8D5
:1012300042006563002070BD10B586B004461421DD
:101240006846FEF7FDFF18492068884229D11748F3
:101250000021026842F010020260006800F01000F5
:10126000059012481438026842F0010202600068DA
:1012700000F0010005904FF4C06000900220CDE91D
:101280000101032003900720049069460848FFF7F6
:1012900085F8002211462520FFF772FB2520FFF775
:1012A00061FB06B010BD0000001001404438024050
:1012B0000000024090F84230202B01D002207047FD
:1012C00021B11AB10023036300F082BB01207047F3
:1012D00030B400681449884224D114484178002968
:1012E00020D1847800220123FE2C03D041780129EB
:1012F00003D010E0437082800DE0017859B98188F5
:101300000B4D0D44491C81802C708188B1F5806F94
:1013100001D3037042700549012230BC891C054885
:10132000FFF7C8BF30BC704700100140000000202C
:10133000B4040020080900207047FEE701684A69EC
:10134000D24352050FD46FF480624A61002140F805
:10135000301F202242738173026942F0040202614D
:10136000017301207047002070470000F8B5044663
:10137000C06A1E460D461746082807D0012805D02A
:1013800010F5803F02D0206B122804D1206801683C
:1013900041F480710160134600224FF00111204694
:1013A000009600F05DF840B120680068C00502D5E5
:1013B0004FF4007020640320F8BD2069B0F5804F21
:1013C0000ED00620216800EAD51040F0F000086138
:1013D00033463A460B49204600F08AF878B902E0D5
:1013E00005F0FE0000E0E8B22168086105493346D7
:1013F0003A46891F204600F07BF80028DCD0012007
:10140000F8BD00000800010070B516460D46044600
:101410001EE02046FFF792FF08B1012070BD681C56
:1014200016D0FFF7B1F8801BA84200D885B9206814
:101430004069C04340070BD5002044F8300F2021FD
:101440006173A073216941F0200121612073E4E7F9
:1014500020684069C0434007DBD4002070BD000015
:101460002DE9F047984617460D460446C1F3074656
:10147000DDF820902AE000BFB8F1FF3F26D0FFF74B
:1014800083F8A0EB0901414502D8B8F1000F1DD146
:101490002068012E16D0806925EA00000004000CA7
:1014A00012D00020B84211D1002044F8300F202182
:1014B0006173A073216941F0200121612073012033
:1014C000BDE8F0874069E7E70120EBE72068012EDF
:1014D0000AD0806925EA00000004000C06D0002034
:1014E000B842C9D00020EBE74069F3E70120F7E7F5
:1014F0002DE9F047984616460D4604464FF0000980
:101500004FF0200AC1F3074723E020684069C04339
:10151000400515D42068016841F40071016021681C
:101520006FF480604861C4F8309084F83DA084F87E
:101530003E90216C41F00401216484F83C9021E04C
:10154000701C06D0FFF720F8A0EB0800B04203D8CB
:1015500016B1012F1FD021E02068012F15D080691E
:1015600025EA00000004000C18D000BF44F8309FAA
:1015700084F80DA084F80E90216941F020012161CA
:1015800084F80C900120BDE8F087406925EA00004E
:101590000004000CEAD12068406901E020688069FD
:1015A00025EA00000004000CAFD1ECE770B5164648
:1015B0000D4604461EE02046FFF7C0FE08B101209C
:1015C00070BD681C16D0FEF7DFFF801BA84200D854
:1015D00085B920684069C04300060BD5002044F857
:1015E000300F20216173A073216941F02001216136
:1015F0002073E4E720684069C0430006DBD4002084
:1016000070BD000070B586B014216846FEF718FE64
:1016100019480024016841F004010160016801F0EB
:1016200004010591016841F080010160016801F049
:1016300080010591016841F001010160016801F03C
:1016400001010591016841F0020101600068012279
:1016500000F00200094E5503059029463046FEF77A
:101660008DFF01200095CDE90104694630460394C1
:10167000FEF794FE06B070BD30380240000802400C
:101680000D4810B50B4901600C49416000214FF431
:1016900080428160C0E9031241618161C1610162E0
:1016A000FEF778FF002803D0BDE81040FEF706BE25
:1016B00010BD000000540040B4080020801A06004D
:1016C0000C4810B50A4901604FF4E1314160002136
:1016D00081600C22C160C0E904128161C161FFF721
:1016E00079FD002803D0BDE81040FEF7E7BD10BD2E
:1016F0000010014008090020FEE7FEE77047704730
:10170000FFF7D6B830B593B030216846FEF798FDA4
:1017100014210CA8FEF794FD1C480024016841F038
:1017200080510160006800F08050119018480168F5
:1017300041F4404101600068022500F440401190EE
:101740000120039010200490009506950820CDE913
:1017500007406420CDE9090504200B906846FFF797
:101760002DFA08B172B6FEE70F20CDE90C054FF453
:101770008050CDE90E4003210CA81094FFF732F9F8
:10178000002801D072B6FEE713B030BD40380240E9
:10179000007000400248016841F470010160704728
:1017A00088ED00E010B5806B0021C185FFF7D1FB0B
:1017B00010BD01680C3151E8002F22F4907241E80D
:1017C0000023002BF5D10168143151E8002F22F0DD
:1017D000010241E80023002BF5D1016B012909D159
:1017E00001680C3151E8002F22F0100241E800237B
:1017F000002BF5D1202180F84210002101637047B1
:1018000008B590F84210222901D0022008BD826854
:101810004FF480539A4201D1016921B1816A9A4201
:101820001BD04AB10AE00268816A5268C2F308021A
:101830000A80816A891C08E0026972B102685268F4
:1018400002F07F020A70816A491C8162C18D491EC3
:101850000904090CC18503D01BE002685268F1E756
:101860000168CA6822F02002CA600168CA6822F4CE
:101870008072CA6001684A6922F001024A6120212F
:1018800080F8421000214163026B012A03D0FFF768
:101890001FFD002008BD016301680C3151E8002FD5
:1018A00022F0100241E80023002BF5D101680A68FC
:1018B000D20602D50A6849680091818DFFF748FB7E
:1018C000E7E7000070B5044600680169E26821F4AA
:1018D0004051114301612169A068E26908436169CF
:1018E000114308432168CA6849F20C639A430243D2
:1018F000CA6020684169A26921F4407111434161C5
:1019000031492068884202D03049884202D1FFF72D
:1019100013F901E0FFF700F9E269002319216425BA
:101920003226B2F5004F626828D0A0FB0101930F68
:101930009200FEF74DFC0146B0FBF5F06FF0180287
:10194000504301EB800006EB0010B0FBF5F000F017
:10195000F002B1FBF5F002EB0012B1FBF5F06FF015
:101960001803584301EB800006EB0010B0FBF5F0C4
:1019700000F00F0021681044886070BDA0FB0101D9
:1019800092185B41FEF724FC0146B0FBF5F0020122
:10199000B1FBF5F06FF01803584301EB800006EB44
:1019A000C000B0FBF5F000F0F80002EB4002B1FB24
:1019B000F5F0584301EB800006EBC000B0FBF5F0FA
:1019C00000F00700D6E700000010014000140140BD
:1019D00081628285C28500214164222180F8421003
:1019E000016921B10168CA6842F48072CA60016865
:1019F0004A6942F001024A610068C16841F0200171
:101A0000C1600020704700000148FFF7A3BA000042
:101A100008090020FEE70907090E002804DB00F191
:101A2000E02080F80014704700F00F0000F1E02083
:101A300080F8141D704702E008C8121F08C1002A70
:101A4000FAD170477047002001E001C1121F002A3F
:101A5000FBD170471CB5FEF733FFFFF753FEFFF7CE
:101A6000D1FDFFF70DFEFFF72BFE1D4800901D4B2B
:101A70001D4A1E491E4800F0BBFA1E481C49009032
:101A80001D4B082294311A4800F050F9184978206B
:101A900081F82400084600F093FA0021144800F071
:101AA0009FFA012215491648FFF704FC134C002544
:101AB000A41E144E402720780028FCD00C4800F0CB
:101AC00023F8CDE90076002280231146084800F073
:101AD000D1F8074800F00CF92570A580EBE700006D
:101AE000C52300087920000895210008BD220008C0
:101AF00020000020A4250008591E00080200002034
:101B000008090020B4040020016890F83820097CFE
:101B100012FB01F1C900406BFEF792BB3FB581B0EB
:101B2000044690F88C00089900283AD0BDF81000BF
:101B3000002836D0012811D9022902D0032907D064
:101B40000CE0BDF80820101A401CADF8080005E0B4
:101B5000BDF80C20101A401CADF80C0011F0010566
:101B600021D0B4F84810BDF80800814219D8B4F863
:101B70004A10814215D9B4F84E30B4F84C2004A96B
:101B80000DF10C0000F02CF900280AD00095206B14
:101B9000BDF81030BDF80C208568BDF8081020464F
:101BA000A84705B030BDB4F84C10BDF80C00814218
:101BB000F7D8B4F84E108142F3D9B4F84A30B4F8EB
:101BC000482004A902A8DDE72DE9FF4F81B090F875
:101BD0009270DDF838801D460E4681468FB1002098
:101BE00082460398039A401C80B20090701983B219
:101BF000484600F065F8002839D001244FF0000B6A
:101C000031E00120ECE700BF98F8000020400023FD
:101C10000CE05B1C761C61009BB2B6B211F0FF04B5
:101C200002D1012408F101086D1EADB255B198F83A
:101C3000001001EA040110B10029EAD103E00029F3
:101C4000E7D003E010B189F8927004E099F89100B0
:101C500048B989F892A0F01A81B2CDF800B0484690
:101C6000039AFFF75BFF002DCED189F8927005B083
:101C7000BDE8F08F2DE9F84F8246DDE90A57D81DFF
:101C8000C0F3CC08501980B21C460090081983B2EA
:101C900016468946504600F013F800280ED00BE097
:101CA00023463246494650460097FFF78DFF761C83
:101CB0006D1E4744B6B2ADB2002DF1D1BDE8F88F2C
:101CC00070B50D461E460446B0F84E10B0F84C00F4
:101CD000049B00F0B4F8002809D0B4F84A10B4F816
:101CE000480033462A46BDE8704000F0A8B870BDF1
:101CF00010B5044600F0F8F82046BDE8104000F0AA
:101D000067B900000149C165704700003B1E00082B
:101D10000021A0F85010A0F854104FF6FF71A0F861
:101D20005210A0F85610016B4968084770B5044678
:101D300000250498A565E362616384F8382084F87F
:101D4000395084F86D5084F8915084F88D500121F9
:101D500084F8921084F89310206301682046884725
:101D60002046FFF7D5FF2046FFF7CCFF84F87050E0
:101D700070BD38B50446B0F856000090B4F8523043
:101D8000B4F85420B4F850102046FFF799FF18B368
:101D9000012084F88C00B4F84810B4F85000814257
:101DA00001D2A4F84800B4F84A10B4F852008142B5
:101DB00001D9A4F84A00B4F84C10B4F85400814298
:101DC00001D2A4F84C00B4F84E10B4F85600814289
:101DD00001D9A4F84E0038BD002084F88C0038BD2D
:101DE00030B504880D882544ADB2AC4205D99C427B
:101DF00002D25D1EADB200E014469C4201D2954273
:101E000001D8002030BD944200D214469D4200D932
:101E10001D460480281B0880012030BD38B5C58FC1
:101E2000049C0094521BC46A92B2A04738BD38B5D6
:101E3000049C0094FFF7F2FF38BD002070478A42EF
:101E400005D2834201D89A4203D9012070478342C8
:101E5000F9D8002070470000F0B502F00706012411
:101E6000B440002590F892E0E7B2DDF814C02C46AB
:101E7000BEF1010F01D83D4600D03C46076822F074
:101E80000702BCF1000F3F7C07FB02F7BAB2476BB9
:101E90003A44114409D108785B1E284360401B0472
:101EA00001F8010B1B0CF6D1F0BD0A78761C2A4311
:101EB0006240A3F101030A7016F007069BB206D038
:101EC0006A06150E6206140E002BEED1F0BD428F8D
:101ED000114490F89220012A03D800BF4FF0010569
:101EE000F2D04FF00104EFE72DE9F843064690F8F1
:101EF000387090F83950006800244FF6FF7890F859
:101F00001190316830462A460B7C716B04FB03FC50
:101F10001FFA8CFC08EACC0C61440091002100F00F
:101F200040F8641C6D1CE4B2EDB2BC4201D24D45D8
:101F3000E7D3BDE8F883F0B590F838204FF6FF7589
:101F4000036805EAC2018187197C05EAC10141875E
:101F500090F8394005EAC401C1875E7CA718B742F2
:101F600001D9321B92B205EAC20220F8401F114487
:101F70004180998A8180D98AC180F0BDFFF7DBBF9B
:101F80000021A0F84810B0F84410A0F84A10B0F8AA
:101F90004010A0F84C10B0F84210A0F84E10FFF717
:101FA000E8BE1CB58DF805108DF80620049C8DF850
:101FB00004300094012284686B460F21A0471CBDA9
:101FC00030B484680023A44630BC1A460A21604716
:101FD00030B484680023A44630BC1A461021604700
:101FE00030B484680023A4460A4630BC0B21604705
:101FF0002DE9F04115460E460446069F00F00AF80A
:102000006761A660C4E903532046BDE8F04100F0D3
:1020100013B80000002140F8081B064A0260426025
:102020008260C260C17681770161FF21017780F80B
:1020300020107047C123000830B484680023A446F0
:1020400030BC1A460921604730B404690023A44615
:1020500030BC1A461921604713B50122046901AB4F
:102060001721A0471CBD30B404690023A44630BC2E
:102070001A4618216047000038B51548182918D0AD
:1020800004DC142921D0172904D105E0192913D023
:1020900020291AD0002038BD0E4C07E0017813F833
:1020A000015B6554491C521E0170D2B2002AF5D161
:1020B0000BE00021017008E04FF47A710091037881
:1020C000044A78210448FEF729FB012038BD0000AE
:1020D0001800002050090020B408002030B4C46863
:1020E0000023A44630BC1A461921604730B4C468A6
:1020F0000023A4460A4630BC1621604730B4C468A9
:102100000023A4460A4630BC1521604730B4C46899
:102110001346A4460A4630BC17216047F8B50C4662
:102120004FEA000514F8011B182924D00EDC1529EC
:1021300019D0162917D0172923D120788DF800003F
:102140006A4601212846FFF7E1FF0AE0192912D06B
:10215000FE2916D122788DF800202921284600F08A
:102160004CF9641CDEE722788DF80020EE6800232D
:102170002846B047F5E70023EE681A462846B047E0
:10218000D0E7F8BD30B4C4680023A44630BC1A467A
:10219000182160472DE9F041DFF8B080144606466B
:1021A000A1F11402002798F800001D46062A4AD221
:1021B000DFE802F02F03161B3E4310B13046FFF755
:1021C00043FF3046FFF74FFF00213046FFF744FF43
:1021D00021463046FFF740FF012088F8000029E043
:1021E00021463046FFF738FF24E050B13046FFF774
:1021F0002BFF06E01821304600F005F9183CE4B248
:102200001835182C2A46F5D82146304600F0FBF840
:102210000EE096F82400FF2802D1782086F82400EA
:1022200037692B4622463046BC46BDE8F041604740
:1022300088F800700120BDE8F0810028F8D0304611
:10224000FFF702FFF4E70020F5E700001900002087
:1022500070B50023456904461A462821A847002383
:10226000E5681A4614212046A84701224B21204642
:1022700000F0C3F8206829210279204600F0BDF85B
:1022800000224B21204600F0B8F82068292102796D
:10229000204600F0B2F801224B21204600F0ADF8B4
:1022A0002068292142792046BDE8704000F0A5B899
:1022B0000160897C80F822107047000070B50C46E0
:1022C000054600F019F888B9092C0BD00A2C01D06A
:1022D000002070BD2846FFF7BBFF05492846FFF7E1
:1022E0001DFF03E003492846FFF7E2FF012070BD10
:1022F00072240008742500082DE9F0411E4614469A
:1023000005460B2908D00D290ED00E291ED00F2905
:1023100027D00020BDE8F0811AB12849FFF7FEFE62
:102320004AE02649491FF9E74AB124490C31FFF731
:10233000F5FE286890F8130085F822003CE01F495C
:10234000491DFFF7EBFE2868807CF5E7FFF71AFFD1
:1023500081212846FFF7D2FE21462846FFF7C6FE18
:1023600027E0FFF70FFF707995F8221001EBC0000E
:10237000C7B240212846FFF7C1FE102040EA1711DE
:102380002846FFF7BBFE07F00F012846FFF7AEFE19
:10239000B07940F0B0012846FFF7A8FE30793268E6
:1023A000C006010E2846FFF7B1FE641E14F0FF04BC
:1023B000F4D12846FFF792FE0120ABE75124000834
:1023C0000020704710B51046282914D0292904D0C0
:1023D0002A2905D02B290ED10CE0FDF7CDFF0AE00C
:1023E000002102EBC20001E000BF491CB1EBC00FAD
:1023F000FAD300E000BF012010BD30B444690023CF
:10240000A44630BC60472DE9F04115460E4604460F
:10241000FFF729FE40212046FFF71EFE27692B46C5
:10242000324617212046B8472046BDE8F041FFF765
:102430000BBE0000000000000000010203040607BC
:102440000809000000000102030400001815AF197C
:10245000FF1815AE19FF1815A115C819FF1815A0FA
:1024600015C019FF1815A115C019FF1815A015C81A
:1024700019FF1815AE15D5168015A8163F15D316D9
:10248000001540158D16141520160015A115C81538
:10249000DA1612158116CF15D916F115DB1640156F
:1024A0002E15A415A619FF1815AE15D5168015A85A
:1024B000163F15D316001540158D1614152016005D
:1024C00015A115C815DA1612158116EF15D916A122
:1024D00015DB1600152E15A415A619FF1815AE1537
:1024E000D5168015A8163F15D316001540158D1664
:1024F000141520160015A115C815DA160215811637
:10250000CF15D916F115DB1640152E15A415A619F1
:10251000FF1815AE15A415D5165015A8163F15D3DE
:102520001600154015AD168B15D9162215DB16357C
:102530001532158116FF15A615DA161219FF181592
:10254000AE15D5168015A8163F15D31600154015E3
:102550008D16141520160015A115C015DA161215C2
:102560008116CF15D916F115DB1640152E15A415B9
:10257000A619FF000001140A6464323200127A00C6
:102580000004289610080000800040000001140A92
:102590006464323200093D000004289610080202EB
:1025A000800040007D1F0008811F00082F1E0008CA
:1025B000D02500080000002020000000361A000886
:1025C000F025000820000020500D0000461A0008E9
:1025D00000000000000000000100000010000000EA
:1025E000000000000024F4000000000000000000D3
:040000050800019955
:00000001FF
